{
  "contractName": "BiometricIdentityManager",
  "abi": [
    {
      "anonymous": false,
      "inputs": [
        {
          "indexed": true,
          "internalType": "address",
          "name": "_user",
          "type": "address"
        },
        {
          "indexed": true,
          "internalType": "address",
          "name": "_requester",
          "type": "address"
        },
        {
          "indexed": false,
          "internalType": "uint256",
          "name": "expirationTime",
          "type": "uint256"
        }
      ],
      "name": "AccessGranted",
      "type": "event"
    },
    {
      "anonymous": false,
      "inputs": [
        {
          "indexed": true,
          "internalType": "address",
          "name": "_user",
          "type": "address"
        },
        {
          "indexed": true,
          "internalType": "address",
          "name": "_requester",
          "type": "address"
        },
        {
          "indexed": false,
          "internalType": "uint256",
          "name": "_timestamp",
          "type": "uint256"
        },
        {
          "indexed": false,
          "internalType": "bool",
          "name": "success",
          "type": "bool"
        }
      ],
      "name": "AccessLogged",
      "type": "event"
    },
    {
      "anonymous": false,
      "inputs": [
        {
          "indexed": true,
          "internalType": "address",
          "name": "_user",
          "type": "address"
        },
        {
          "indexed": true,
          "internalType": "address",
          "name": "_requester",
          "type": "address"
        }
      ],
      "name": "AccessRevoked",
      "type": "event"
    },
    {
      "anonymous": false,
      "inputs": [
        {
          "indexed": true,
          "internalType": "address",
          "name": "_user",
          "type": "address"
        },
        {
          "indexed": true,
          "internalType": "address",
          "name": "_guardian",
          "type": "address"
        }
      ],
      "name": "GuardianAdded",
      "type": "event"
    },
    {
      "anonymous": false,
      "inputs": [
        {
          "indexed": true,
          "internalType": "address",
          "name": "_user",
          "type": "address"
        },
        {
          "indexed": true,
          "internalType": "address",
          "name": "_guardian",
          "type": "address"
        }
      ],
      "name": "GuardianRemoved",
      "type": "event"
    },
    {
      "anonymous": false,
      "inputs": [
        {
          "indexed": true,
          "internalType": "address",
          "name": "_user",
          "type": "address"
        },
        {
          "indexed": true,
          "internalType": "address",
          "name": "_guardian",
          "type": "address"
        }
      ],
      "name": "IdentityRecovered",
      "type": "event"
    },
    {
      "anonymous": false,
      "inputs": [
        {
          "indexed": true,
          "internalType": "address",
          "name": "_user",
          "type": "address"
        }
      ],
      "name": "IdentityUpdated",
      "type": "event"
    },
    {
      "anonymous": false,
      "inputs": [
        {
          "indexed": true,
          "internalType": "address",
          "name": "_user",
          "type": "address"
        },
        {
          "indexed": false,
          "internalType": "bool",
          "name": "success",
          "type": "bool"
        }
      ],
      "name": "IdentityVerified",
      "type": "event"
    },
    {
      "inputs": [
        {
          "internalType": "bytes32",
          "name": "_biometricHash",
          "type": "bytes32"
        }
      ],
      "name": "registerIdentity",
      "outputs": [],
      "stateMutability": "nonpayable",
      "type": "function"
    },
    {
      "inputs": [
        {
          "internalType": "bytes32",
          "name": "newBiometricHash",
          "type": "bytes32"
        }
      ],
      "name": "updateIdentity",
      "outputs": [],
      "stateMutability": "nonpayable",
      "type": "function"
    },
    {
      "inputs": [
        {
          "internalType": "address",
          "name": "_user",
          "type": "address"
        },
        {
          "internalType": "bytes32",
          "name": "_biometricHash",
          "type": "bytes32"
        }
      ],
      "name": "verifyIdentity",
      "outputs": [
        {
          "internalType": "bool",
          "name": "",
          "type": "bool"
        }
      ],
      "stateMutability": "nonpayable",
      "type": "function"
    },
    {
      "inputs": [
        {
          "internalType": "address",
          "name": "_requester",
          "type": "address"
        },
        {
          "internalType": "uint256",
          "name": "_duration",
          "type": "uint256"
        }
      ],
      "name": "grantAccess",
      "outputs": [],
      "stateMutability": "nonpayable",
      "type": "function"
    },
    {
      "inputs": [
        {
          "internalType": "address",
          "name": "_requester",
          "type": "address"
        }
      ],
      "name": "revokeAccess",
      "outputs": [],
      "stateMutability": "nonpayable",
      "type": "function"
    },
    {
      "inputs": [
        {
          "internalType": "address",
          "name": "_user",
          "type": "address"
        },
        {
          "internalType": "address",
          "name": "_requester",
          "type": "address"
        }
      ],
      "name": "checkAccess",
      "outputs": [
        {
          "internalType": "bool",
          "name": "",
          "type": "bool"
        }
      ],
      "stateMutability": "view",
      "type": "function",
      "constant": true
    },
    {
      "inputs": [
        {
          "internalType": "address",
          "name": "_user",
          "type": "address"
        },
        {
          "internalType": "address",
          "name": "_requester",
          "type": "address"
        },
        {
          "internalType": "uint256",
          "name": "_timestamp",
          "type": "uint256"
        },
        {
          "internalType": "bool",
          "name": "_success",
          "type": "bool"
        }
      ],
      "name": "logAccess",
      "outputs": [],
      "stateMutability": "nonpayable",
      "type": "function"
    },
    {
      "inputs": [
        {
          "internalType": "address",
          "name": "_guardian",
          "type": "address"
        }
      ],
      "name": "addGuardian",
      "outputs": [],
      "stateMutability": "nonpayable",
      "type": "function"
    },
    {
      "inputs": [
        {
          "internalType": "address",
          "name": "_user",
          "type": "address"
        },
        {
          "internalType": "bytes32",
          "name": "_newBiometricHash",
          "type": "bytes32"
        }
      ],
      "name": "recoverIdentity",
      "outputs": [],
      "stateMutability": "nonpayable",
      "type": "function"
    },
    {
      "inputs": [
        {
          "internalType": "address",
          "name": "_guardian",
          "type": "address"
        }
      ],
      "name": "removeGuardian",
      "outputs": [],
      "stateMutability": "nonpayable",
      "type": "function"
    },
    {
      "inputs": [
        {
          "internalType": "address",
          "name": "_user",
          "type": "address"
        }
      ],
      "name": "identityExists",
      "outputs": [
        {
          "internalType": "bool",
          "name": "",
          "type": "bool"
        }
      ],
      "stateMutability": "view",
      "type": "function",
      "constant": true
    },
    {
      "inputs": [
        {
          "internalType": "address",
          "name": "_user",
          "type": "address"
        }
      ],
      "name": "getGuardian",
      "outputs": [
        {
          "internalType": "address",
          "name": "",
          "type": "address"
        }
      ],
      "stateMutability": "view",
      "type": "function",
      "constant": true
    },
    {
      "inputs": [
        {
          "internalType": "address",
          "name": "_user",
          "type": "address"
        }
      ],
      "name": "getBiometricHash",
      "outputs": [
        {
          "internalType": "bytes32",
          "name": "",
          "type": "bytes32"
        }
      ],
      "stateMutability": "view",
      "type": "function",
      "constant": true
    }
  ],
  "bytecode": "0x6080604052348015600f57600080fd5b506124a18061001f6000396000f3fe608060405234801561001057600080fd5b50600436106100cf5760003560e01c8063680a138b1161008c578063927baed911610066578063927baed9146102205780639df892561461023c578063a526d83b14610258578063b301d90214610274576100cf565b8063680a138b146101b857806371404156146101e857806385e6853114610204576100cf565b80630680d47e146100d4578063103d9fae146100f05780634d221b851461010c5780635581f3721461013c57806362c3fc2e1461016c57806362e1f74514610188575b600080fd5b6100ee60048036038101906100e99190611b1f565b6102a4565b005b61010a60048036038101906101059190611bbc565b61042f565b005b61012660048036038101906101219190611be9565b61056f565b6040516101339190611c25565b60405180910390f35b61015660048036038101906101519190611c40565b6105c7565b6040516101639190611c25565b60405180910390f35b61018660048036038101906101819190611bbc565b6106f7565b005b6101a2600480360381019061019d9190611c80565b610856565b6040516101af9190611c25565b60405180910390f35b6101d260048036038101906101cd9190611be9565b6109ac565b6040516101df9190611ccf565b60405180910390f35b61020260048036038101906101fd9190611be9565b610a85565b005b61021e60048036038101906102199190611be9565b610d2f565b005b61023a60048036038101906102359190611c40565b6110ff565b005b61025660048036038101906102519190611cea565b611347565b005b610272600480360381019061026d9190611be9565b61163d565b005b61028e60048036038101906102899190611be9565b611955565b60405161029b9190611d39565b60405180910390f35b6000808573ffffffffffffffffffffffffffffffffffffffff1673ffffffffffffffffffffffffffffffffffffffff16815260200190815260200160002060010160009054906101000a900460ff16610332576040517f08c379a000000000000000000000000000000000000000000000000000000000815260040161032990611db1565b60405180910390fd5b8373ffffffffffffffffffffffffffffffffffffffff163373ffffffffffffffffffffffffffffffffffffffff16148061037257506103718433610856565b5b8061038357506103828432610856565b5b6103c2576040517f08c379a00000000000000000000000000000000000000000000000000000000081526004016103b990611e1d565b60405180910390fd5b8273ffffffffffffffffffffffffffffffffffffffff168473ffffffffffffffffffffffffffffffffffffffff167f5850638526ca4286a0ac94389ee64062c662ce7b9957739c351bbc41185d5e0f8484604051610421929190611e4c565b60405180910390a350505050565b6000803373ffffffffffffffffffffffffffffffffffffffff1673ffffffffffffffffffffffffffffffffffffffff16815260200190815260200160002060010160009054906101000a900460ff16156104be576040517f08c379a00000000000000000000000000000000000000000000000000000000081526004016104b590611ec1565b60405180910390fd5b6000801b8103610503576040517f08c379a00000000000000000000000000000000000000000000000000000000081526004016104fa90611f2d565b60405180910390fd5b60008060003373ffffffffffffffffffffffffffffffffffffffff1673ffffffffffffffffffffffffffffffffffffffff168152602001908152602001600020905081816000018190555060018160010160006101000a81548160ff0219169083151502179055505050565b60008060008373ffffffffffffffffffffffffffffffffffffffff1673ffffffffffffffffffffffffffffffffffffffff16815260200190815260200160002060010160009054906101000a900460ff169050919050565b60008060008473ffffffffffffffffffffffffffffffffffffffff1673ffffffffffffffffffffffffffffffffffffffff16815260200190815260200160002060010160009054906101000a900460ff16610657576040517f08c379a000000000000000000000000000000000000000000000000000000000815260040161064e90611f99565b60405180910390fd5b6000826000808673ffffffffffffffffffffffffffffffffffffffff1673ffffffffffffffffffffffffffffffffffffffff168152602001908152602001600020600001541490508373ffffffffffffffffffffffffffffffffffffffff167f61864590ac01b95e445535ed8623c869a900dad8074ee5e303f700ec878817c2826040516106e59190611c25565b60405180910390a28091505092915050565b6000803373ffffffffffffffffffffffffffffffffffffffff1673ffffffffffffffffffffffffffffffffffffffff16815260200190815260200160002060010160009054906101000a900460ff16610785576040517f08c379a000000000000000000000000000000000000000000000000000000000815260040161077c90611f99565b60405180910390fd5b6000801b81036107ca576040517f08c379a00000000000000000000000000000000000000000000000000000000081526004016107c190611f2d565b60405180910390fd5b806000803373ffffffffffffffffffffffffffffffffffffffff1673ffffffffffffffffffffffffffffffffffffffff168152602001908152602001600020600001819055503373ffffffffffffffffffffffffffffffffffffffff167f46ec2a4949a858d89c042ca51257040b7a00700d5424a9a1670a165f0dc08e3560405160405180910390a250565b60008060008473ffffffffffffffffffffffffffffffffffffffff1673ffffffffffffffffffffffffffffffffffffffff16815260200190815260200160002060010160009054906101000a900460ff166108e6576040517f08c379a00000000000000000000000000000000000000000000000000000000081526004016108dd90611db1565b60405180910390fd5b60008060008573ffffffffffffffffffffffffffffffffffffffff1673ffffffffffffffffffffffffffffffffffffffff16815260200190815260200160002060020160008473ffffffffffffffffffffffffffffffffffffffff1673ffffffffffffffffffffffffffffffffffffffff1681526020019081526020016000209050600043826002015411905060004283600101541190508260000160009054906101000a900460ff1680156109a1575081806109a05750805b5b935050505092915050565b60008060008373ffffffffffffffffffffffffffffffffffffffff1673ffffffffffffffffffffffffffffffffffffffff16815260200190815260200160002060010160009054906101000a900460ff16610a3c576040517f08c379a0000000000000000000000000000000000000000000000000000000008152600401610a3390611f99565b60405180910390fd5b6000808373ffffffffffffffffffffffffffffffffffffffff1673ffffffffffffffffffffffffffffffffffffffff168152602001908152602001600020600001549050919050565b6000803373ffffffffffffffffffffffffffffffffffffffff1673ffffffffffffffffffffffffffffffffffffffff16815260200190815260200160002060010160009054906101000a900460ff16610b13576040517f08c379a0000000000000000000000000000000000000000000000000000000008152600401610b0a90611f99565b60405180910390fd5b600073ffffffffffffffffffffffffffffffffffffffff168173ffffffffffffffffffffffffffffffffffffffff1603610b82576040517f08c379a0000000000000000000000000000000000000000000000000000000008152600401610b7990612005565b60405180910390fd5b8073ffffffffffffffffffffffffffffffffffffffff166000803373ffffffffffffffffffffffffffffffffffffffff1673ffffffffffffffffffffffffffffffffffffffff16815260200190815260200160002060010160019054906101000a900473ffffffffffffffffffffffffffffffffffffffff1673ffffffffffffffffffffffffffffffffffffffff1614610c51576040517f08c379a0000000000000000000000000000000000000000000000000000000008152600401610c4890612071565b60405180910390fd5b60008060003373ffffffffffffffffffffffffffffffffffffffff1673ffffffffffffffffffffffffffffffffffffffff16815260200190815260200160002060010160016101000a81548173ffffffffffffffffffffffffffffffffffffffff021916908373ffffffffffffffffffffffffffffffffffffffff1602179055508073ffffffffffffffffffffffffffffffffffffffff163373ffffffffffffffffffffffffffffffffffffffff167fee943cdb81826d5909c559c6b1ae6908fcaf2dbc16c4b730346736b486283e8b60405160405180910390a350565b6000803373ffffffffffffffffffffffffffffffffffffffff1673ffffffffffffffffffffffffffffffffffffffff16815260200190815260200160002060010160009054906101000a900460ff16610dbd576040517f08c379a0000000000000000000000000000000000000000000000000000000008152600401610db490611f99565b60405180910390fd5b600073ffffffffffffffffffffffffffffffffffffffff168173ffffffffffffffffffffffffffffffffffffffff1603610e2c576040517f08c379a0000000000000000000000000000000000000000000000000000000008152600401610e23906120dd565b60405180910390fd5b6000803373ffffffffffffffffffffffffffffffffffffffff1673ffffffffffffffffffffffffffffffffffffffff16815260200190815260200160002060020160008273ffffffffffffffffffffffffffffffffffffffff1673ffffffffffffffffffffffffffffffffffffffff16815260200190815260200160002060000160009054906101000a900460ff16610efa576040517f08c379a0000000000000000000000000000000000000000000000000000000008152600401610ef190612149565b60405180910390fd5b60008060003373ffffffffffffffffffffffffffffffffffffffff1673ffffffffffffffffffffffffffffffffffffffff16815260200190815260200160002060020160008373ffffffffffffffffffffffffffffffffffffffff1673ffffffffffffffffffffffffffffffffffffffff16815260200190815260200160002060000160006101000a81548160ff02191690831515021790555060008060003373ffffffffffffffffffffffffffffffffffffffff1673ffffffffffffffffffffffffffffffffffffffff16815260200190815260200160002060020160008373ffffffffffffffffffffffffffffffffffffffff1673ffffffffffffffffffffffffffffffffffffffff1681526020019081526020016000206001018190555060008060003373ffffffffffffffffffffffffffffffffffffffff1673ffffffffffffffffffffffffffffffffffffffff16815260200190815260200160002060020160008373ffffffffffffffffffffffffffffffffffffffff1673ffffffffffffffffffffffffffffffffffffffff168152602001908152602001600020600201819055508073ffffffffffffffffffffffffffffffffffffffff163373ffffffffffffffffffffffffffffffffffffffff167f825c8be24eb0df19500f63e86c29e7d0d951e73056b889b891d85e40938d9b6e60405160405180910390a350565b816000808273ffffffffffffffffffffffffffffffffffffffff1673ffffffffffffffffffffffffffffffffffffffff16815260200190815260200160002060010160009054906101000a900460ff1661118e576040517f08c379a000000000000000000000000000000000000000000000000000000000815260040161118590611db1565b60405180910390fd5b3373ffffffffffffffffffffffffffffffffffffffff166000808373ffffffffffffffffffffffffffffffffffffffff1673ffffffffffffffffffffffffffffffffffffffff16815260200190815260200160002060010160019054906101000a900473ffffffffffffffffffffffffffffffffffffffff1673ffffffffffffffffffffffffffffffffffffffff161461125d576040517f08c379a0000000000000000000000000000000000000000000000000000000008152600401611254906121b5565b60405180910390fd5b6000801b82036112a2576040517f08c379a000000000000000000000000000000000000000000000000000000000815260040161129990611f2d565b60405180910390fd5b816000808573ffffffffffffffffffffffffffffffffffffffff1673ffffffffffffffffffffffffffffffffffffffff168152602001908152602001600020600001819055503373ffffffffffffffffffffffffffffffffffffffff168373ffffffffffffffffffffffffffffffffffffffff167fa21ddbc03abf84198e4d9ac1758f66585d389637848501302cebbcbe38bf847160405160405180910390a3505050565b6000803373ffffffffffffffffffffffffffffffffffffffff1673ffffffffffffffffffffffffffffffffffffffff16815260200190815260200160002060010160009054906101000a900460ff166113d5576040517f08c379a00000000000000000000000000000000000000000000000000000000081526004016113cc90611f99565b60405180910390fd5b600073ffffffffffffffffffffffffffffffffffffffff168273ffffffffffffffffffffffffffffffffffffffff1603611444576040517f08c379a000000000000000000000000000000000000000000000000000000000815260040161143b906120dd565b60405180910390fd5b603c811015611488576040517f08c379a000000000000000000000000000000000000000000000000000000000815260040161147f90612221565b60405180910390fd5b62278d008111156114ce576040517f08c379a00000000000000000000000000000000000000000000000000000000081526004016114c59061228d565b60405180910390fd5b60006001826114dd91906122dc565b9050604051806060016040528060011515815260200183426114ff919061231e565b81526020018243611510919061231e565b8152506000803373ffffffffffffffffffffffffffffffffffffffff1673ffffffffffffffffffffffffffffffffffffffff16815260200190815260200160002060020160008573ffffffffffffffffffffffffffffffffffffffff1673ffffffffffffffffffffffffffffffffffffffff16815260200190815260200160002060008201518160000160006101000a81548160ff02191690831515021790555060208201518160010155604082015181600201559050508273ffffffffffffffffffffffffffffffffffffffff163373ffffffffffffffffffffffffffffffffffffffff167f65d0cc1e52d49938ca4ad9f423c79c1b84d914b9a683fbc5d3f93ac3cc5635f58442611623919061231e565b6040516116309190612352565b60405180910390a3505050565b6000803373ffffffffffffffffffffffffffffffffffffffff1673ffffffffffffffffffffffffffffffffffffffff16815260200190815260200160002060010160009054906101000a900460ff166116cb576040517f08c379a00000000000000000000000000000000000000000000000000000000081526004016116c290611f99565b60405180910390fd5b600073ffffffffffffffffffffffffffffffffffffffff168173ffffffffffffffffffffffffffffffffffffffff160361173a576040517f08c379a000000000000000000000000000000000000000000000000000000000815260040161173190612005565b60405180910390fd5b3373ffffffffffffffffffffffffffffffffffffffff168173ffffffffffffffffffffffffffffffffffffffff16036117a8576040517f08c379a000000000000000000000000000000000000000000000000000000000815260040161179f906123df565b60405180910390fd5b600073ffffffffffffffffffffffffffffffffffffffff166000803373ffffffffffffffffffffffffffffffffffffffff1673ffffffffffffffffffffffffffffffffffffffff16815260200190815260200160002060010160019054906101000a900473ffffffffffffffffffffffffffffffffffffffff1673ffffffffffffffffffffffffffffffffffffffff1614611878576040517f08c379a000000000000000000000000000000000000000000000000000000000815260040161186f9061244b565b60405180910390fd5b806000803373ffffffffffffffffffffffffffffffffffffffff1673ffffffffffffffffffffffffffffffffffffffff16815260200190815260200160002060010160016101000a81548173ffffffffffffffffffffffffffffffffffffffff021916908373ffffffffffffffffffffffffffffffffffffffff1602179055508073ffffffffffffffffffffffffffffffffffffffff163373ffffffffffffffffffffffffffffffffffffffff167fbc3292102fa77e083913064b282926717cdfaede4d35f553d66366c0a3da755a60405160405180910390a350565b60008060008373ffffffffffffffffffffffffffffffffffffffff1673ffffffffffffffffffffffffffffffffffffffff16815260200190815260200160002060010160009054906101000a900460ff166119e5576040517f08c379a00000000000000000000000000000000000000000000000000000000081526004016119dc90611db1565b60405180910390fd5b6000808373ffffffffffffffffffffffffffffffffffffffff1673ffffffffffffffffffffffffffffffffffffffff16815260200190815260200160002060010160019054906101000a900473ffffffffffffffffffffffffffffffffffffffff169050919050565b600080fd5b600073ffffffffffffffffffffffffffffffffffffffff82169050919050565b6000611a7e82611a53565b9050919050565b611a8e81611a73565b8114611a9957600080fd5b50565b600081359050611aab81611a85565b92915050565b6000819050919050565b611ac481611ab1565b8114611acf57600080fd5b50565b600081359050611ae181611abb565b92915050565b60008115159050919050565b611afc81611ae7565b8114611b0757600080fd5b50565b600081359050611b1981611af3565b92915050565b60008060008060808587031215611b3957611b38611a4e565b5b6000611b4787828801611a9c565b9450506020611b5887828801611a9c565b9350506040611b6987828801611ad2565b9250506060611b7a87828801611b0a565b91505092959194509250565b6000819050919050565b611b9981611b86565b8114611ba457600080fd5b50565b600081359050611bb681611b90565b92915050565b600060208284031215611bd257611bd1611a4e565b5b6000611be084828501611ba7565b91505092915050565b600060208284031215611bff57611bfe611a4e565b5b6000611c0d84828501611a9c565b91505092915050565b611c1f81611ae7565b82525050565b6000602082019050611c3a6000830184611c16565b92915050565b60008060408385031215611c5757611c56611a4e565b5b6000611c6585828601611a9c565b9250506020611c7685828601611ba7565b9150509250929050565b60008060408385031215611c9757611c96611a4e565b5b6000611ca585828601611a9c565b9250506020611cb685828601611a9c565b9150509250929050565b611cc981611b86565b82525050565b6000602082019050611ce46000830184611cc0565b92915050565b60008060408385031215611d0157611d00611a4e565b5b6000611d0f85828601611a9c565b9250506020611d2085828601611ad2565b9150509250929050565b611d3381611a73565b82525050565b6000602082019050611d4e6000830184611d2a565b92915050565b600082825260208201905092915050565b7f55736572206964656e7469747920646f6573206e6f7420657869737400000000600082015250565b6000611d9b601c83611d54565b9150611da682611d65565b602082019050919050565b60006020820190508181036000830152611dca81611d8e565b9050919050565b7f4e6f7420617574686f72697a656420746f206c6f672061636365737300000000600082015250565b6000611e07601c83611d54565b9150611e1282611dd1565b602082019050919050565b60006020820190508181036000830152611e3681611dfa565b9050919050565b611e4681611ab1565b82525050565b6000604082019050611e616000830185611e3d565b611e6e6020830184611c16565b9392505050565b7f4964656e7469747920616c726561647920726567697374657265640000000000600082015250565b6000611eab601b83611d54565b9150611eb682611e75565b602082019050919050565b60006020820190508181036000830152611eda81611e9e565b9050919050565b7f496e76616c69642062696f6d6574726963206861736800000000000000000000600082015250565b6000611f17601683611d54565b9150611f2282611ee1565b602082019050919050565b60006020820190508181036000830152611f4681611f0a565b9050919050565b7f4964656e7469747920646f6573206e6f74206578697374000000000000000000600082015250565b6000611f83601783611d54565b9150611f8e82611f4d565b602082019050919050565b60006020820190508181036000830152611fb281611f76565b9050919050565b7f496e76616c696420677561726469616e20616464726573730000000000000000600082015250565b6000611fef601883611d54565b9150611ffa82611fb9565b602082019050919050565b6000602082019050818103600083015261201e81611fe2565b9050919050565b7f4e6f74207468652061737369676e656420677561726469616e00000000000000600082015250565b600061205b601983611d54565b915061206682612025565b602082019050919050565b6000602082019050818103600083015261208a8161204e565b9050919050565b7f496e76616c696420726571756573746572206164647265737300000000000000600082015250565b60006120c7601983611d54565b91506120d282612091565b602082019050919050565b600060208201905081810360008301526120f6816120ba565b9050919050565b7f4e6f20616363657373206772616e74656420746f207265766f6b650000000000600082015250565b6000612133601b83611d54565b915061213e826120fd565b602082019050919050565b6000602082019050818103600083015261216281612126565b9050919050565b7f4e6f7420617574686f72697a656420677561726469616e000000000000000000600082015250565b600061219f601783611d54565b91506121aa82612169565b602082019050919050565b600060208201905081810360008301526121ce81612192565b9050919050565b7f4475726174696f6e20746f6f2073686f72740000000000000000000000000000600082015250565b600061220b601283611d54565b9150612216826121d5565b602082019050919050565b6000602082019050818103600083015261223a816121fe565b9050919050565b7f4475726174696f6e20746f6f206c6f6e67000000000000000000000000000000600082015250565b6000612277601183611d54565b915061228282612241565b602082019050919050565b600060208201905081810360008301526122a68161226a565b9050919050565b7f4e487b7100000000000000000000000000000000000000000000000000000000600052601160045260246000fd5b60006122e782611ab1565b91506122f283611ab1565b925082820261230081611ab1565b91508282048414831517612317576123166122ad565b5b5092915050565b600061232982611ab1565b915061233483611ab1565b925082820190508082111561234c5761234b6122ad565b5b92915050565b60006020820190506123676000830184611e3d565b92915050565b7f477561726469616e2063616e6e6f7420626520746865206964656e746974792060008201527f6f776e6572000000000000000000000000000000000000000000000000000000602082015250565b60006123c9602583611d54565b91506123d48261236d565b604082019050919050565b600060208201905081810360008301526123f8816123bc565b9050919050565b7f477561726469616e20616c72656164792061737369676e656400000000000000600082015250565b6000612435601983611d54565b9150612440826123ff565b602082019050919050565b6000602082019050818103600083015261246481612428565b905091905056fea2646970667358221220ca623994f32ba01d4a5713de1a2e0b7e3115d2334a8f42cb577d0cb2f87486d564736f6c634300081d0033",
  "immutableReferences": {},
  "source": "// SPDX-License-Identifier: MIT\npragma solidity ^0.8.29;\n\n/**\n * @title BiometricIdentityManager\n * @dev Contract for managing decentralized identity using biometric hashes\n */\ncontract BiometricIdentityManager {\n    // Constants for duration validation\n    uint256 private constant MIN_DURATION = 1 minutes;\n    uint256 private constant MAX_DURATION = 30 days;\n    // Average block time is approximately 12 seconds on Ethereum mainnet\n    uint256 private constant BLOCKS_PER_SECOND = 1;\n\n    // Struct to store user identity information\n    struct UserIdentity {\n        bytes32 biometricHash;\n        bool exists;\n        address guardian;\n        mapping(address => AccessInfo) accessGrants;\n    }\n\n    // Struct to store access grant information\n    struct AccessInfo {\n    bool hasAccess;\n    uint256 expirationTime;\n    uint256 expirationBlock; // New field\n    }\n\n    // Mapping from user address to their identity information\n    mapping(address => UserIdentity) private identities;\n    \n    // Events as specified in the table\n    event IdentityUpdated(address indexed _user);\n    event IdentityVerified(address indexed _user, bool success);\n    event AccessGranted(address indexed _user, address indexed _requester, uint256 expirationTime);\n    event AccessRevoked(address indexed _user, address indexed _requester);\n    event AccessLogged(address indexed _user, address indexed _requester, uint256 _timestamp, bool success);\n    event GuardianAdded(address indexed _user, address indexed _guardian);\n    event IdentityRecovered(address indexed _user, address indexed _guardian);\n    event GuardianRemoved(address indexed _user, address indexed _guardian);\n    \n    // Modifiers\n    modifier onlyIdentityOwner() {\n        require(identities[msg.sender].exists, \"Identity does not exist\");\n        _;\n    }\n    \n    modifier onlyGuardian(address _user) {\n        require(identities[_user].exists, \"User identity does not exist\");\n        require(identities[_user].guardian == msg.sender, \"Not authorized guardian\");\n        _;\n    }\n\n    /**\n     * @dev Registers a user's decentralized identity by storing a hashed biometric\n     * @param _biometricHash The hash of the user's biometric data\n     */\n    function registerIdentity(bytes32 _biometricHash) public {\n        require(!identities[msg.sender].exists, \"Identity already registered\");\n        require(_biometricHash != bytes32(0), \"Invalid biometric hash\");\n        \n        UserIdentity storage newIdentity = identities[msg.sender];\n        newIdentity.biometricHash = _biometricHash;\n        newIdentity.exists = true;\n    }\n    \n    /**\n     * @dev Updates the stored biometric hash for a user\n     * @param newBiometricHash The new biometric hash to store\n     */\n    function updateIdentity(bytes32 newBiometricHash) public onlyIdentityOwner {\n        require(newBiometricHash != bytes32(0), \"Invalid biometric hash\");\n        \n        identities[msg.sender].biometricHash = newBiometricHash;\n        \n        emit IdentityUpdated(msg.sender);\n    }\n    \n    /**\n     * @dev Verifies if the given biometric hash matches the stored hash\n     * @param _user The address of the user\n     * @param _biometricHash The biometric hash to verify\n     * @return bool True if access is valid\n     */\n    function verifyIdentity(address _user, bytes32 _biometricHash) public returns (bool) {\n        require(identities[_user].exists, \"Identity does not exist\");\n        \n        bool success = identities[_user].biometricHash == _biometricHash;\n        \n        emit IdentityVerified(_user, success);\n        \n        return success;\n    } \n    /**\n     * @param _requester The address of the entity requesting access\n     * @param _duration The duration for which access is granted (in seconds)\n     */\n    function grantAccess(address _requester, uint256 _duration) public onlyIdentityOwner {\n        require(_requester != address(0), \"Invalid requester address\");\n        require(_duration >= MIN_DURATION, \"Duration too short\");\n        require(_duration <= MAX_DURATION, \"Duration too long\");\n        \n        // Calculate number of blocks based on duration\n        uint256 blockDuration = _duration * BLOCKS_PER_SECOND;\n        \n        // Store both block number and timestamp based expiration\n        identities[msg.sender].accessGrants[_requester] = AccessInfo({\n            hasAccess: true,\n            expirationTime: block.timestamp + _duration,\n            expirationBlock: block.number + blockDuration\n        });\n        \n        emit AccessGranted(msg.sender, _requester, block.timestamp + _duration);\n    }\n    \n    /**\n     * @dev Revokes access before expiration\n     * @param _requester The address of the entity whose access is being revoked\n     */\n    function revokeAccess(address _requester) public onlyIdentityOwner {\n        require(_requester != address(0), \"Invalid requester address\");\n        require(identities[msg.sender].accessGrants[_requester].hasAccess, \"No access granted to revoke\");\n        \n        identities[msg.sender].accessGrants[_requester].hasAccess = false;\n        identities[msg.sender].accessGrants[_requester].expirationTime = 0;\n        identities[msg.sender].accessGrants[_requester].expirationBlock = 0;\n        \n        emit AccessRevoked(msg.sender, _requester);\n    }\n    \n    /**\n     * @dev Checks if a requester has valid access\n     * @param _user The address of the user\n     * @param _requester The address of the entity requesting access\n     * @return bool True if access is valid\n     */\n    function checkAccess(address _user, address _requester) public view returns (bool) {\n        require(identities[_user].exists, \"User identity does not exist\");\n        \n        AccessInfo storage access = identities[_user].accessGrants[_requester];\n        \n        // Prioritize block number validation as it's more tamper-resistant\n        bool blockValid = access.expirationBlock > block.number;\n        \n        // Use timestamp as a secondary check\n        bool timeValid = access.expirationTime > block.timestamp;\n        \n        // Access must be granted and either block or time validation must pass\n        return access.hasAccess && (blockValid || timeValid);\n    }\n\n\n    \n    /**\n     * @dev Logs authentication attempts on-chain\n     * @param _user The address of the user\n     * @param _requester The address of the entity requesting access\n     * @param _timestamp The timestamp of the access attempt\n     * @param _success Whether the access attempt was successful\n     */\n    function logAccess(address _user, address _requester, uint256 _timestamp, bool _success) public {\n    require(identities[_user].exists, \"User identity does not exist\");\n    \n    // Use both sender and tx.origin for authorization\n    require(\n        msg.sender == _user || \n        checkAccess(_user, msg.sender) ||\n        checkAccess(_user, tx.origin),\n        \"Not authorized to log access\"\n    );\n    \n    emit AccessLogged(_user, _requester, _timestamp, _success);\n    }\n    \n    /**\n     * @dev Allows a user to assign a guardian for identity recovery\n     * @param _guardian The address of the guardian\n     */\n    function addGuardian(address _guardian) public onlyIdentityOwner {\n        require(_guardian != address(0), \"Invalid guardian address\");\n        require(_guardian != msg.sender, \"Guardian cannot be the identity owner\");\n        require(identities[msg.sender].guardian == address(0), \"Guardian already assigned\");\n        \n        identities[msg.sender].guardian = _guardian;\n        \n        emit GuardianAdded(msg.sender, _guardian);\n    }\n    \n    /**\n     * @dev Allows a guardian to reset a user's identity\n     * @param _user The address of the user\n     * @param _newBiometricHash The new biometric hash to assign\n     */\n    function recoverIdentity(address _user, bytes32 _newBiometricHash) public onlyGuardian(_user) {\n        require(_newBiometricHash != bytes32(0), \"Invalid biometric hash\");\n        \n        identities[_user].biometricHash = _newBiometricHash;\n        \n        // Remove all access grants for security\n        // Note: This is a simplified approach. In a production scenario,\n        // you might want to iterate through all granted accesses and revoke them.\n        \n        emit IdentityRecovered(_user, msg.sender);\n    }\n    \n    /**\n     * @dev Removes a guardian assigned for recovery\n     * @param _guardian The address of the guardian to remove\n     */\n    function removeGuardian(address _guardian) public onlyIdentityOwner {\n        require(_guardian != address(0), \"Invalid guardian address\");\n        require(identities[msg.sender].guardian == _guardian, \"Not the assigned guardian\");\n        \n        identities[msg.sender].guardian = address(0);\n        \n        emit GuardianRemoved(msg.sender, _guardian);\n    }\n    \n    /**\n     * @dev Checks if an identity exists for a given address\n     * @param _user The address to check\n     * @return bool True if identity exists\n     */\n    function identityExists(address _user) public view returns (bool) {\n        return identities[_user].exists;\n    }\n    \n    /**\n     * @dev Gets the guardian for a user\n     * @param _user The address of the user\n     * @return address The guardian's address\n     */\n    function getGuardian(address _user) public view returns (address) {\n        require(identities[_user].exists, \"User identity does not exist\");\n        return identities[_user].guardian;\n    }\n\n        /**\n     * @dev Gets the biometric hash for a user\n     * @param _user The address of the user\n     * @return bytes32 The stored biometric hash\n     */\n    function getBiometricHash(address _user) public view returns (bytes32) {\n        require(identities[_user].exists, \"Identity does not exist\");\n        return identities[_user].biometricHash;\n    }\n}",
  "sourcePath": "/home/arvind/neuroID/contracts/BiometricIdentityManager.sol",
  "compiler": {
    "name": "solc",
    "version": "0.8.29+commit.ab55807c.Emscripten.clang"
  },
  "schemaVersion": "3.4.16",
  "updatedAt": "2025-04-09T22:37:23.577Z",
  "networkType": "ethereum",
  "devdoc": {
    "details": "Contract for managing decentralized identity using biometric hashes",
    "kind": "dev",
    "methods": {
      "addGuardian(address)": {
        "details": "Allows a user to assign a guardian for identity recovery",
        "params": {
          "_guardian": "The address of the guardian"
        }
      },
      "checkAccess(address,address)": {
        "details": "Checks if a requester has valid access",
        "params": {
          "_requester": "The address of the entity requesting access",
          "_user": "The address of the user"
        },
        "returns": {
          "_0": "bool True if access is valid"
        }
      },
      "getBiometricHash(address)": {
        "details": "Gets the biometric hash for a user",
        "params": {
          "_user": "The address of the user"
        },
        "returns": {
          "_0": "bytes32 The stored biometric hash"
        }
      },
      "getGuardian(address)": {
        "details": "Gets the guardian for a user",
        "params": {
          "_user": "The address of the user"
        },
        "returns": {
          "_0": "address The guardian's address"
        }
      },
      "grantAccess(address,uint256)": {
        "params": {
          "_duration": "The duration for which access is granted (in seconds)",
          "_requester": "The address of the entity requesting access"
        }
      },
      "identityExists(address)": {
        "details": "Checks if an identity exists for a given address",
        "params": {
          "_user": "The address to check"
        },
        "returns": {
          "_0": "bool True if identity exists"
        }
      },
      "logAccess(address,address,uint256,bool)": {
        "details": "Logs authentication attempts on-chain",
        "params": {
          "_requester": "The address of the entity requesting access",
          "_success": "Whether the access attempt was successful",
          "_timestamp": "The timestamp of the access attempt",
          "_user": "The address of the user"
        }
      },
      "recoverIdentity(address,bytes32)": {
        "details": "Allows a guardian to reset a user's identity",
        "params": {
          "_newBiometricHash": "The new biometric hash to assign",
          "_user": "The address of the user"
        }
      },
      "registerIdentity(bytes32)": {
        "details": "Registers a user's decentralized identity by storing a hashed biometric",
        "params": {
          "_biometricHash": "The hash of the user's biometric data"
        }
      },
      "removeGuardian(address)": {
        "details": "Removes a guardian assigned for recovery",
        "params": {
          "_guardian": "The address of the guardian to remove"
        }
      },
      "revokeAccess(address)": {
        "details": "Revokes access before expiration",
        "params": {
          "_requester": "The address of the entity whose access is being revoked"
        }
      },
      "updateIdentity(bytes32)": {
        "details": "Updates the stored biometric hash for a user",
        "params": {
          "newBiometricHash": "The new biometric hash to store"
        }
      },
      "verifyIdentity(address,bytes32)": {
        "details": "Verifies if the given biometric hash matches the stored hash",
        "params": {
          "_biometricHash": "The biometric hash to verify",
          "_user": "The address of the user"
        },
        "returns": {
          "_0": "bool True if access is valid"
        }
      }
    },
    "title": "BiometricIdentityManager",
    "version": 1
  },
  "userdoc": {
    "kind": "user",
    "methods": {},
    "version": 1
  }
}